:100000000C9466000C948E000C948E000C948E0060
:100010000C948E000C948E000C948E000C948E0028
:100020000C948E000C948E000C948E000C948E0018
:100030000C948E000C948E000C948E000C948E0008
:100040000C944A030C948E000C94AF050C94E705B5
:100050000C948E000C948E000C948E000C948E00E8
:100060000C948E000C948E000000000024002700E9
:100070002A0000000000250028002B0000000000DE
:1000800023002600290004040404040404040202DA
:100090000202020203030303030301020408102007
:1000A0004080010204081020010204081020000012
:1000B0000007000201000003040600000000000029
:1000C000000067014503F806A1086C0111241FBE5A
:1000D000CFEFD8E0DEBFCDBF12E0A0E0B1E0EAEEA6
:1000E000F7E102C005900D92AC33B107D9F713E0E8
:1000F000ACE3B2E001C01D92AA39B107E1F710E00C
:10010000CAECD0E004C02297FE010E940309C23C61
:10011000D107C9F70E9439070C94E80B0C94000032
:100120008130910549F484E792E00E940E088CE347
:1001300092E00E948B010895009721F48CE392E0F5
:100140000E949F0108956115710591F0DB010D90EA
:100150000020E9F7AD0141505040461B570BDC0130
:10016000ED91FC910280F381E02D09959C0102C084
:1001700020E030E0C901089585E993E060E875E288
:100180000E94190885E993E062E00E94310885E940
:1001900093E061E00E94310885E993E064E00E9409
:1001A000310885E993E062E043E052E020E031E08D
:1001B0000E94360885E993E061E043E052E02CE0DC
:1001C00031E00E94360885E993E064E043E052E0C4
:1001D00027E131E00E94360862E370E080E090E0C1
:1001E0000E94C60385E993E00E94710185E993E0CE
:1001F00064E043E052E024E231E00E94360883E705
:1002000093E040E855E260E070E00E9422068DE055
:1002100061E00E9455048CE060E00E9455048CE08F
:1002200061E00E949A0488E060E00E94550488E042
:1002300061E00E949A048CE00E94D2048130910512
:1002400071F485E993E064E043E052E024E331E0B7
:100250000E9436088CE392E061E00E94A50185E9E6
:1002600093E064E043E052E021E431E00E9436088C
:10027000089583E793E00E940F0597FD13C085E979
:1002800093E064E04EEF51E021E531E00E94360852
:1002900083E793E00E944D058CE392E00E941103F6
:1002A0000E94340288E00E94D204009779F485E924
:1002B00093E064E04EEF51E02AE531E00E94360819
:1002C0000E9435028CE392E00E94FB02089581E0D7
:1002D00090E00E949000089580E090E00E949000DD
:1002E0000895E9E7F2E0282F392FD90185E00D9034
:1002F00001928150E1F789E792E064E048E152E041
:1003000021E731E00E94360864E670E080E090E08A
:100310000E94C6030895CF93DF93EC01C1960E941B
:100320000E0883E793E09FAB8EAB40E855E260E0B8
:1003300070E00E94220618AADF91CF910895FC0177
:1003400086A997A90E94A1060895FC0160AB0895B3
:10035000EF92FF920F931F93CF93DF93EC01F62E52
:10036000E72E8A018EA99FA966E871E00E94920794
:100370006CE271E080E090E00E94C60309C0A081B9
:10038000B18116962D913C911797CF01F9010995EE
:100390008EA99FA9DC01ED91FC910480F581E02DEF
:1003A0000995EEA9FFA9181619064CF3CF01B8015B
:1003B0000E949207C701E92EF82E00E010E08EA9F6
:1003C0009FA9DC01ED91FC910480F581E02D099558
:1003D0001816190694F40230110579F08EA99FA918
:1003E000DC01ED91FC910680F781E02D0995F70184
:1003F00081937F010F5F1F4FE2CF8EA99FA96AE80B
:1004000071E00E949207DF91CF911F910F91FF90B1
:10041000EF900895E82FF92F20E030E0808191815E
:100420008617970729F4828193818617970731F001
:100430002F5F3F4F34962C30310581F7C901089565
:10044000E82FF92F20E030E082819381009721F49A
:1004500080819181009731F02F5F3F4F34962C308F
:10046000310591F7C901089508950895462F572F32
:10047000FC01E40FF51F80E090E020E030E00BC0CD
:10048000629170E0082E02C0660F771F0A94E2F7AF
:10049000260F371F08964150504057FFF1CFC90132
:1004A0000895EF92FF920F931F93CF93DF93EC0188
:1004B00088A9882309F48FC089E792E064E049E0C5
:1004C00052E02FE831E00E94360880917E028823B6
:1004D00091F589E792E064E049E052E02BE931E0F0
:1004E0000E943608CE010E9420027C01CE0100E06D
:1004F00010E0B8014AEA51E00E94A801F701EE0FAE
:10050000FF1FEE0FFF1F3296A6E8B2E0EC0FFD1FB3
:1005100088E001900D928150E1F7F701EE0FFF1F87
:10052000EE0FFF1FA6E8B2E0EC0FFD1F88E0019080
:100530000D928150E1F780917E02813009F054C024
:1005400089E792E064E049E052E02FEA31E00E945E
:10055000360887EB92E068E070E00E9436027C018A
:1005600000D000D000D0EDB7FEB7319600E010E02B
:10057000ADB7BEB712961C930E9311978BEB91E01B
:10058000938382838091B702848315820E94070936
:100590008DB79EB706960FB6F8949EBF0FBE8DBF5F
:1005A00089E792E064E049E052E098010E94360851
:1005B000CE01B7010E940A02FC01EE0FFF1FEE0FF1
:1005C000FF1FAFE7B2E0EC0FFD1F80E101900D923D
:1005D0008150E1F709C089E792E064E049E052E028
:1005E0002EEB31E00E943608DF91CF911F910F91E1
:1005F000FF90EF900895CF93DF93EC010E9451029A
:10060000AEA9BFA9ED91FC9111970280F381E02D75
:10061000CD016EE772E044E650E00995DF91CF919D
:1006200008950F931F93CF93DF938C01CEE7D2E011
:10063000D801D6968D919C91D797DC01ED91FC91D4
:100640000480F581E02D099518161906B4F4B2E07E
:10065000C23EDB0791F061E070E080E090E00E9434
:10066000C603F80186A997A9DC01ED91FC910680EB
:10067000F781E02D09958993DBCFC8010E945102D3
:10068000DF91CF911F910F91089589E792E00E9429
:100690000E0808951F920F920FB60F9211242F93F8
:1006A0003F938F939F93AF93BF938091E602909176
:1006B000E702A091E802B091E9023091EA020196C6
:1006C000A11DB11D232F2D5F2D3720F02D57019631
:1006D000A11DB11D2093EA028093E6029093E702E8
:1006E000A093E802B093E9028091E2029091E302C4
:1006F000A091E402B091E5020196A11DB11D809385
:10070000E2029093E302A093E402B093E502BF916A
:10071000AF919F918F913F912F910F900FBE0F90AE
:100720001F9018958FB7F8942091E6023091E70258
:100730004091E8025091E9028FBFB901CA010895C2
:100740009FB7F8942091E2023091E3024091E402D5
:100750005091E50286B5A89B06C08F3F21F02F5F20
:100760003F4F4F4F5F4F9FBF542F432F322F2227B2
:10077000280F311D411D511D82E0220F331F441FE0
:10078000551F8A95D1F7B901CA010895EF92FF92DA
:100790000F931F93CF93DF937B018C010E94A003E3
:1007A000EB010FC00E94A0036C1B7D0B83E0683E31
:1007B000780738F00894E108F10801091109C851D7
:1007C000DC4FE114F1040105110561F7DF91CF91D0
:1007D0001F910F91FF90EF900895789484B58260F7
:1007E00084BD84B5816084BD85B5826085BD85B5D5
:1007F000816085BDEEE6F0E0808181608083E1E884
:10080000F0E01082808182608083808181608083BB
:10081000E0E8F0E0808181608083E1EBF0E08081BE
:1008200084608083E0EBF0E0808181608083EAE790
:10083000F0E0808184608083808182608083808119
:10084000816080838081806880831092C1000895D8
:10085000833071F0843028F48130A1F0823021F5AA
:1008600014C08630B1F08730D1F08430E9F404C090
:10087000809180008F7703C0809180008F7D80936E
:100880008000089584B58F7702C084B58F7D84BDC4
:1008900008958091B0008F778093B0000895809183
:1008A000B0008F7D8093B0000895EF92FF92CF93B8
:1008B000DF9390E0FC01E656FF4F44918A579F4F2B
:1008C000FC018491882389F190E0880F991FFC0135
:1008D000E859FF4F25913491D9018E589F4FFC0163
:1008E00025913491E22EE7017E01F32EE701662384
:1008F00049F49FB7F8948C91409584238C93888118
:1009000084230BC0623059F49FB7F8948C91242F44
:10091000209582238C938881842B888305C09FB780
:10092000F8948C91842B8C939FBFDF91CF91FF9093
:10093000EF9008950F931F93DF93CF930F92CDB74E
:10094000DEB7282F30E0F901E255FF4F8491F9011D
:10095000E656FF4F14912A573F4FF90104910023A7
:10096000D9F0882321F069830E9428046981E02F4F
:10097000F0E0EE0FFF1FEE58FF4F85919491DC01E0
:100980009FB7F894662321F48C911095812302C0BF
:100990008C91812B8C939FBF0F90CF91DF911F91F2
:1009A0000F9108950F931F93282F30E0F901E2551E
:1009B000FF4F8491F901E656FF4F04912A573F4FAC
:1009C000F9011491112391F0882311F00E94280459
:1009D000E12FF0E0EE0FFF1FE458FF4F8591949157
:1009E000DC018C91802321E030E011F420E030E044
:1009F000C9011F910F910895FC0184859585FC0123
:100A0000E05CFF4F208131818E5B9F4FFC01808134
:100A10009181281B390B2F733070C9010895FC0197
:100A200084859585FC01E05CFF4F40815181FC018C
:100A3000EE5BFF4F208131814217530741F0019057
:100A4000F081E02DE80FF91F208130E002C02FEF88
:100A50003FEFC9010895FC0184859585FC01E05CA8
:100A6000FF4F40815181FC01EE5BFF4F20813181BE
:100A70004217530771F0A081B181A80FB91F2C91C3
:100A80008081918101968F7390709183808330E093
:100A900002C02FEF3FEFC9010895FC0181A1882317
:100AA00029F0A489B5898C9186FFFBCF11A2089506
:100AB000FC0126853785D901A05CBF4F8D919C91A3
:100AC00001968F739070D901AE5BBF4F4D915C91D1
:100AD000119784179507D1F3D901A05CBF4F0D90F2
:100AE000BC91A02DA20FB31F6C93A685B785A05C07
:100AF000BF4F11969C938E93A689B7892C9181E064
:100B000090E0078C02C0880F991F0A94E2F7282B07
:100B10002C9381E081A30488F589E02D8081806495
:100B2000808381E090E00895FB01E05CFF4F20812D
:100B300031812F5F3F4F2F733070DB01AE5BBF4FB2
:100B40004D915C9111972417350739F0A081B1813F
:100B5000A60FB71F8C9331832083089508951F92A9
:100B60000F920FB60F9211242F933F934F935F93E1
:100B70006F937F938F939F93AF93BF93EF93FF9365
:100B80008091C00082FD07C08091C6006BEE72E0CC
:100B90000E94940502C08091C600FF91EF91BF9121
:100BA000AF919F918F917F916F915F914F913F9105
:100BB0002F910F900FBE0F901F90189583E793E031
:100BC0000E94FC04009711F00E94AE0508951F9248
:100BD0000F920FB60F9211242F933F938F939F93F1
:100BE000EF93FF9320916F03309170038091710315
:100BF000909172032817390731F48091C1008F7DDD
:100C00008093C10014C0E0917103F0917203E15D23
:100C1000FC4F2081809171039091720301968F7334
:100C2000907090937203809371032093C600FF919C
:100C3000EF919F918F913F912F910F900FBE0F9049
:100C40001F901895DF92EF92FF920F931F93CF930F
:100C5000DF93EC017A018B01DD24D394403081EEE7
:100C6000580780E0680780E0780749F4DD24EC89C4
:100C7000FD89108260E874E88EE190E00FC0EC8995
:100C8000FD8981E090E008A002C0880F991F0A94B6
:100C9000E2F7808360E079E08DE390E0A8019701BE
:100CA0000E94DF0821503040404050405695479503
:100CB0003795279580E12030380710F0DD20B1F618
:100CC000E889F9893083EA89FB89208319A2EE89B2
:100CD000FF89408181E090E09C010C8C02C0220FD2
:100CE000331F0A94E2F7422B4083EE89FF8940814B
:100CF0009C010D8C02C0220F331F0A94E2F7422B95
:100D00004083EE89FF8940819C010E8C02C0220F36
:100D1000331F0A94E2F7422B4083EE89FF8920813A
:100D20000F8C02C0880F991F0A94E2F780958223E6
:100D30008083DF91CF911F910F91FF90EF90DF9013
:100D40000895CF93DF93FC0186859785DC01A05C35
:100D5000BF4F8E5B9F4F4D915C911197EC012881A5
:100D6000398142175307B9F7A689B7894C9181E0B9
:100D700090E09C01048C02C0220F331F0A94E2F71A
:100D8000209524232C93A689B7894C919C01058C2E
:100D900002C0220F331F0A94E2F7209524232C93DC
:100DA000A689B7894C919C01068C02C0220F331F83
:100DB0000A94E2F7209524232C93A689B7892C91D5
:100DC000078C02C0880F991F0A94E2F7809582234E
:100DD0008C9384859585FC01EE5BFF4F20813181EA
:100DE000805C9F4FFC0131832083DF91CF91089578
:100DF000109276031092750388EE93E0A0E0B0E0C5
:100E00008093770390937803A0937903B0937A0348
:100E1000E5E7F3E080E392E0929382938BEE92E039
:100E2000958784878FE293E09787868785EC90E0AB
:100E3000918B808B84EC90E0938B828B80EC90E0A4
:100E4000958B848B81EC90E0978B868B82EC90E085
:100E5000918F808F86EC90E0938F828F84E0848FD7
:100E600083E0858F87E0868F85E0878F81E080A390
:100E70000895CF93DF930E94ED030E94BC00CEED56
:100E8000D5E00E9439012097E1F30E94DE05F9CFF9
:100E9000CF92DF92EF92FF920F931F93CF93DF9346
:100EA0006C017B018A01C0E0D0E00FC0D7016D91D9
:100EB0007D01D601ED91FC910190F081E02DC601FC
:100EC0000995C80FD91F015010400115110571F780
:100ED000CE01DF91CF911F910F91FF90EF90DF90A6
:100EE000CF9008950E94A3000895DC01ED91FC913C
:100EF0000190F081E02D099508950F931F93CF93F2
:100F0000DF93EC016DE00E9475078C01CE016AE071
:100F10000E947507080F191FC801DF91CF911F911B
:100F20000F9108950F931F93CF93DF93EC010E94CD
:100F3000A3008C01CE010E947D07080F191FC80174
:100F4000DF91CF911F910F9108958F929F92AF9251
:100F5000BF92CF92DF92EF92FF920F931F93DF9396
:100F6000CF93CDB7DEB7A1970FB6F894DEBF0FBE13
:100F7000CDBF6C01042FE52FCB01122F19A2223017
:100F800008F41AE021E2E22EF12CEC0EFD1E812E77
:100F90009924AA24BB2403C0022FE32FCA01602F87
:100FA0007E2FA50194010E94DF08129F802D11243D
:100FB000081B0894E108F1080A3010F4005D01C034
:100FC000095CF7010083211531054105510521F721
:100FD000C601B7010E94A300A1960FB6F894DEBF28
:100FE0000FBECDBFCF91DF911F910F91FF90EF907A
:100FF000DF90CF90BF90AF909F908F900895211574
:10100000310549F4DC01ED91FC910190F081E02D76
:10101000642F099508950E94A5070895CF93DF9343
:10102000EC010E94AC081B821C821A82DF91CF91D6
:1010300008950F931F93CF93DF938C0181E0F80104
:101040008383C3E7D3E0AB0160E070E0CE010E9490
:101050002206F801D183C083DF91CF911F910F91B8
:101060000895FC018481862B848308956F927F927A
:101070008F929F92BF92CF92DF92EF92FF920F9347
:101080001F93CF93DF93EC014A0169018B81882381
:1010900009F448C0FC80F622F61609F043C03E0170
:1010A000EC2EB72CCE010E94D0088C010E94920336
:1010B000AB01BC01C8010E94BF086AEC71E00E944C
:1010C000B0088C818F21823021F4CE016EEC71E06A
:1010D00011C0813021F4CE0165ED71E00BC0843088
:1010E00021F4CE016EED71E005C0883029F4CE0107
:1010F0006CEE71E00E94B0088E2D9B2D64EF71E0C4
:101100000E94B008B4010E94B00868EF71E00E942C
:10111000B008B6010E94B0086CEF71E00E94B00800
:1011200081E001C080E0DF91CF911F910F91FF908E
:10113000EF90DF90CF90BF909F908F907F906F90B7
:10114000089585E993E00E94AC08109298031092EC
:101150009903109297030895FC011182108208955B
:10116000EF92FF92CF93DF93EC01888199810E94E7
:101170007207CE01DF91CF91FF90EF900895EF922B
:10118000FF92CF93DF93EC01888199812AE030E0D0
:101190000E94FF07CE01DF91CF91FF90EF9008955D
:1011A000EF92FF92CF93DF93EC01888199810E94A7
:1011B0007D07CE01DF91CF91FF90EF900895A1E2DE
:1011C0001A2EAA1BBB1BFD010DC0AA1FBB1FEE1FC1
:1011D000FF1FA217B307E407F50720F0A21BB30B0C
:1011E000E40BF50B661F771F881F991F1A9469F788
:1011F00060957095809590959B01AC01BD01CF01E4
:101200000895EE0FFF1F0590F491E02D0994AEE0D4
:10121000B0E0EDE0F9E00C94BF0B0D891E8986E08B
:101220008C831A8309838FEF9FE79E838D839E01B2
:10123000275E3F4FCE0101966F89788DA9010E94EC
:101240002A09EF81F885E00FF11F10822E96E4E065
:101250000C94DB0BACE0B0E0E0E3F9E00C94B10BF4
:101260006C011B018A01FC0117821682838181FFB8
:10127000D1C12E010894411C511CF6019381F1014A
:1012800093FD859193FF81911F01882309F4BEC1CD
:10129000853239F493FD859193FF81911F01853249
:1012A00029F490E0B6010E94270BE7CFEE24FF243B
:1012B00020E02032B0F48B3269F08C3228F4803296
:1012C00051F0833271F40BC08D3239F0803349F420
:1012D00021602CC02260246029C0286027C02061C2
:1012E00025C027FD2CC0382F30533A3098F426FF04
:1012F00008C08E2D880FE82EEE0CEE0CE80EE30EE3
:1013000015C08F2D880FF82EFF0CFF0CF80EF30E72
:1013100020620CC08E3221F426FD78C1206406C004
:101320008C3611F4206802C0883649F4F10193FD2F
:10133000859193FF81911F01882309F0BACF982FDF
:101340009554933018F09052933028F40C5F1F4F4F
:10135000FFE3F9830DC0833631F0833771F08335B5
:1013600009F060C022C0F801808189830E5F1F4FA1
:10137000420171E0A72EB12C16C062E0662E712CDE
:10138000600E711EF8018080918026FF03C06E2DD3
:1013900070E002C06FEF7FEFC4012C870E941C0B2E
:1013A0005C0183012C852F7717C052E0652E712CCC
:1013B000600E711EF8018080918026FF03C06E2DA3
:1013C00070E002C06FEF7FEFC4012C870E94110B09
:1013D0005C012C852068830123FD20C008C080E2C9
:1013E00090E0B6012C870E94270BFA942C858F2D54
:1013F00090E0A816B90698F311C0F40127FD859175
:1014000027FF81914F0190E0B6012C870E94270BA6
:101410002C85F110FA940894A108B108A114B10424
:1014200061F7F1C0843611F0893649F527FF08C00D
:10143000F80160817181828193810C5F1F4F09C027
:10144000F80160817181882777FD8095982F0E5F64
:101450001F4F4FE6B42EB22297FF09C0909580959A
:10146000709561957F4F8F4F9F4FF0E8BF2AA20183
:101470002AE030E00E94530B782E741845C085375F
:1014800031F43FEEB32EB2222AE030E025C099EFCE
:10149000B92EB2228F36C1F0803720F4883509F09A
:1014A000B5C00DC0803721F0883709F0AFC002C049
:1014B00020E1B22AB4FE0BC084E0B82A08C0B4FE12
:1014C00009C0E6E0BE2A06C028E030E005C020E101
:1014D00030E002C020E132E0B7FE08C0F8016081D0
:1014E0007181828193810C5F1F4F07C0F801608179
:1014F000718180E090E00E5F1F4FA2010E94530BAC
:10150000782E7418FFE7BF22B6FE0BC02EEFB22272
:101510007E1438F4B4FE07C0B2FC05C08FEEB822CA
:1015200002C0A72C01C0AE2C8B2D90E0B4FE0DC0E4
:10153000FE01E70DF11D2081203319F4E9EEBE22F2
:1015400009C0A394B2FE06C004C0867890700097CC
:1015500009F0A3948B2C9924B3FC14C0B0FE0FC0E7
:10156000AF1428F4E72CEF0CEA18AF2C08C0E72CD6
:1015700006C080E290E0B6010E94270BA394AF144E
:10158000C0F304C0AF1410F4FA1801C0FF2484FEA5
:101590000FC080E390E0B6010E94270B82FE1FC0BF
:1015A00081FE03C088E590E010C088E790E00DC0A0
:1015B000C40186789070009791F081FC02C080E2AF
:1015C00001C08BE2B7FC8DE290E0B6010E94270BD0
:1015D00006C080E390E0B6010E94270BEA947E14D7
:1015E000C0F37A94F201E70DF11D808190E0B6011D
:1015F0000E94270B7720A9F706C080E290E0B60191
:101600000E94270BFA94FF20C1F737CEF6012681FE
:10161000378102C02FEF3FEFC9012C96E2E10C9415
:10162000CD0BFC010590615070400110D8F78095FA
:1016300090958E0F9F1F0895FC016150704001909E
:101640000110D8F7809590958E0F9F1F08950F93E6
:101650001F93CF93DF938C01EB018B8181FF1BC024
:1016600082FF0DC02E813F818C819D812817390713
:1016700064F4E881F9810193F983E88306C0E88581
:10168000F985802F0995009731F48E819F8101960D
:101690009F838E8302C00FEF1FEFC801DF91CF91B0
:1016A0001F910F910895FA01AA27283051F1203196
:1016B00081F1E8946F936E7F6E5F7F4F8F4F9F4FE6
:1016C000AF4FB1E03ED0B4E03CD0670F781F891F28
:1016D0009A1FA11D680F791F8A1F911DA11D6A0FF6
:1016E000711D811D911DA11D20D009F468943F91A9
:1016F0002AE0269F11243019305D3193DEF6CF01A8
:101700000895462F4770405D4193B3E00FD0C9F76D
:10171000F6CF462F4F70405D4A3318F0495D31FDDA
:101720004052419302D0A9F7EACFB4E0A69597952D
:10173000879577956795BA95C9F700976105710503
:1017400008959B01AC010A2E06945795479537954D
:101750002795BA95C9F7620F731F841F951FA01DA7
:1017600008952F923F924F925F926F927F928F9245
:101770009F92AF92BF92CF92DF92EF92FF920F9320
:101780001F93CF93DF93CDB7DEB7CA1BDB0B0FB62A
:10179000F894DEBF0FBECDBF09942A8839884888E7
:1017A0005F846E847D848C849B84AA84B984C8847D
:1017B000DF80EE80FD800C811B81AA81B981CE0F74
:1017C000D11D0FB6F894DEBF0FBECDBFED01089559
:1017D00010E0CAECD0E004C0FE010E94030922968A
:0A17E000CC3CD107C9F7F894FFCF05
:1017EA004572726F7220746573740A005761726E63
:1017FA0020746573740A004E6F7469667920746583
:10180A0073740A00456E746572696E672053657455
:10181A0075700A00524F55544552204D4F44450A9F
:10182A0000536574757020436F6D706C6574650A3A
:10183A000052656164696E670A0057726974696E5D
:10184A00670A002B2B2B0041544D59004154434E3B
:10185A0000646562756720696E697420636F6D70D4
:10186A006C6574650A002B2B2B004154434E0052C1
:10187A006F75746572204D6F6465004579656261A4
:10188A006C6C205061636B6574004154494400508C
:10189A0065636B205061636B65740025580053655E
:1018AA006E736F72204D6F646500202D20004552C3
:1018BA00524F523A005741524E494E473A004E4F04
:1018CA0054494649434154494F4E3A0053544154AE
:1018DA0055533A000A090900207C200020006C6F49
:1018EA006F700073657475700070726F63657373DF
:1018FA005F7061636B65740073616E7367726964AC
:10190A005F64656275675F696E6974000000000054
:0C191A0058054807FC042B050F054D057F
:00000001FF
